{
  "contractName": "Donations",
  "abi": [
    {
      "inputs": [],
      "stateMutability": "payable",
      "type": "constructor"
    },
    {
      "inputs": [],
      "name": "owner",
      "outputs": [
        {
          "internalType": "address payable",
          "name": "",
          "type": "address"
        }
      ],
      "stateMutability": "view",
      "type": "function"
    },
    {
      "inputs": [],
      "name": "getBalance",
      "outputs": [
        {
          "internalType": "uint256",
          "name": "",
          "type": "uint256"
        }
      ],
      "stateMutability": "view",
      "type": "function"
    },
    {
      "inputs": [
        {
          "internalType": "uint256",
          "name": "amount",
          "type": "uint256"
        }
      ],
      "name": "makeDonations",
      "outputs": [],
      "stateMutability": "payable",
      "type": "function"
    },
    {
      "inputs": [],
      "name": "withdrawBalance",
      "outputs": [],
      "stateMutability": "nonpayable",
      "type": "function"
    }
  ],
  "bytecode": "0x6080604052336000806101000a81548173ffffffffffffffffffffffffffffffffffffffff021916908373ffffffffffffffffffffffffffffffffffffffff1602179055506102c4806100536000396000f3fe60806040526004361061003f5760003560e01c806312065fe014610044578063474a41db1461006f5780635fd8c7101461008b5780638da5cb5b146100a2575b600080fd5b34801561005057600080fd5b506100596100cd565b6040516100669190610220565b60405180910390f35b610089600480360381019061008491906101be565b6100d5565b005b34801561009757600080fd5b506100a06100e4565b005b3480156100ae57600080fd5b506100b7610185565b6040516100c49190610205565b60405180910390f35b600047905090565b8034146100e157600080fd5b50565b60008054906101000a900473ffffffffffffffffffffffffffffffffffffffff1673ffffffffffffffffffffffffffffffffffffffff163373ffffffffffffffffffffffffffffffffffffffff161461013c57600080fd5b3373ffffffffffffffffffffffffffffffffffffffff166108fc479081150290604051600060405180830381858888f19350505050158015610182573d6000803e3d6000fd5b50565b60008054906101000a900473ffffffffffffffffffffffffffffffffffffffff1681565b6000813590506101b881610277565b92915050565b6000602082840312156101d057600080fd5b60006101de848285016101a9565b91505092915050565b6101f08161023b565b82525050565b6101ff8161026d565b82525050565b600060208201905061021a60008301846101e7565b92915050565b600060208201905061023560008301846101f6565b92915050565b60006102468261024d565b9050919050565b600073ffffffffffffffffffffffffffffffffffffffff82169050919050565b6000819050919050565b6102808161026d565b811461028b57600080fd5b5056fea26469706673582212204b9278ddadc33fae307d68f28cfd176cc0bacaac8cb64fdf47591c16752fb57b64736f6c63430008030033",
  "immutableReferences": {},
  "source": "pragma solidity >0.8.0;\n\ncontract Donations{\n    address payable public owner;\n    \n    constructor() public payable{\n        owner=payable(msg.sender);\n    }\n    \n    function getBalance() view public returns(uint256){\n        return address(this).balance;\n    }\n    \n    function makeDonations(uint256 amount) payable public\n    {\n        require(msg.value==amount);\n    }\n    \n    function withdrawBalance() public {\n        require(msg.sender==owner);\n        payable(msg.sender).transfer(address(this).balance);\n    }\n    \n}",
  "sourcePath": "/home/cultless/Desktop/own_nervos_contract/Donations_on_Polyjuice/contracts/Donations.sol",
  "compiler": {
    "name": "solc",
    "version": "0.8.3+commit.8d00100c.Linux.g++"
  },
  "schemaVersion": "3.3.4",
  "updatedAt": "2021-08-21T09:52:17.296Z",
  "devdoc": {
    "kind": "dev",
    "methods": {},
    "version": 1
  },
  "userdoc": {
    "kind": "user",
    "methods": {},
    "version": 1
  }
}